13472018B01000009DUNDER MIFFLIN                          T000000000                                        3472018000001               000000002 000000000036300000000000 000000000000000                                                                                                                                                                                                                                                                                                                           
23472018B0100000900000000T         PARTY                                   D25   B 000000000024200  000000000000000 0000000000000000000 000000000024200 000000000000000 000000000000000 000000000000000 000000000000000 000000000000000 000000000000000 000000000000000                     000000000000000                                                                                                                                                                                                         
23472018B0100000900000001R         SUPPLIER                                D08   A 000000000012100  000000000000000 0000000000000000000 000000000012100 000000000000000 000000000000000 000000000000000 000000000000000 000000000000000 000000000000000 000000000000000                     000000000000000                                                                                                                                                                                                         
